{
  "_format": "hh-sol-artifact-1",
  "contractName": "chai",
  "sourceName": "contracts/Chai.sol",
  "abi": [
    {
      "inputs": [],
      "stateMutability": "nonpayable",
      "type": "constructor"
    },
    {
      "inputs": [
        {
          "internalType": "string",
          "name": "name",
          "type": "string"
        },
        {
          "internalType": "string",
          "name": "message",
          "type": "string"
        }
      ],
      "name": "buyChai",
      "outputs": [],
      "stateMutability": "payable",
      "type": "function"
    },
    {
      "inputs": [],
      "name": "getMemos",
      "outputs": [
        {
          "components": [
            {
              "internalType": "string",
              "name": "name",
              "type": "string"
            },
            {
              "internalType": "string",
              "name": "message",
              "type": "string"
            },
            {
              "internalType": "uint256",
              "name": "timestamp",
              "type": "uint256"
            },
            {
              "internalType": "address",
              "name": "from",
              "type": "address"
            }
          ],
          "internalType": "struct chai.Memo[]",
          "name": "",
          "type": "tuple[]"
        }
      ],
      "stateMutability": "view",
      "type": "function"
    }
  ],
  "bytecode": "0x608060405234801561000f575f80fd5b503360015f6101000a81548173ffffffffffffffffffffffffffffffffffffffff021916908373ffffffffffffffffffffffffffffffffffffffff160217905550610b1d8061005d5f395ff3fe608060405260043610610028575f3560e01c80636a13d8591461002c578063865c517214610048575b5f80fd5b6100466004803603810190610041919061051d565b610072565b005b348015610053575f80fd5b5061005c6101f7565b6040516100699190610786565b60405180910390f35b5f34116100b4576040517f08c379a00000000000000000000000000000000000000000000000000000000081526004016100ab90610800565b60405180910390fd5b60015f9054906101000a900473ffffffffffffffffffffffffffffffffffffffff1673ffffffffffffffffffffffffffffffffffffffff166108fc3490811502906040515f60405180830381858888f19350505050158015610118573d5f803e3d5ffd5b505f60405180608001604052808481526020018381526020014281526020013373ffffffffffffffffffffffffffffffffffffffff16815250908060018154018082558091505060019003905f5260205f2090600402015f909190919091505f820151815f01908161018a9190610a18565b5060208201518160010190816101a09190610a18565b50604082015181600201556060820151816003015f6101000a81548173ffffffffffffffffffffffffffffffffffffffff021916908373ffffffffffffffffffffffffffffffffffffffff16021790555050505050565b60605f805480602002602001604051908101604052809291908181526020015f905b828210156103c7578382905f5260205f2090600402016040518060800160405290815f820180546102499061084b565b80601f01602080910402602001604051908101604052809291908181526020018280546102759061084b565b80156102c05780601f10610297576101008083540402835291602001916102c0565b820191905f5260205f20905b8154815290600101906020018083116102a357829003601f168201915b505050505081526020016001820180546102d99061084b565b80601f01602080910402602001604051908101604052809291908181526020018280546103059061084b565b80156103505780601f1061032757610100808354040283529160200191610350565b820191905f5260205f20905b81548152906001019060200180831161033357829003601f168201915b5050505050815260200160028201548152602001600382015f9054906101000a900473ffffffffffffffffffffffffffffffffffffffff1673ffffffffffffffffffffffffffffffffffffffff1673ffffffffffffffffffffffffffffffffffffffff168152505081526020019060010190610219565b50505050905090565b5f604051905090565b5f80fd5b5f80fd5b5f80fd5b5f80fd5b5f601f19601f8301169050919050565b7f4e487b71000000000000000000000000000000000000000000000000000000005f52604160045260245ffd5b61042f826103e9565b810181811067ffffffffffffffff8211171561044e5761044d6103f9565b5b80604052505050565b5f6104606103d0565b905061046c8282610426565b919050565b5f67ffffffffffffffff82111561048b5761048a6103f9565b5b610494826103e9565b9050602081019050919050565b828183375f83830152505050565b5f6104c16104bc84610471565b610457565b9050828152602081018484840111156104dd576104dc6103e5565b5b6104e88482856104a1565b509392505050565b5f82601f830112610504576105036103e1565b5b81356105148482602086016104af565b91505092915050565b5f8060408385031215610533576105326103d9565b5b5f83013567ffffffffffffffff8111156105505761054f6103dd565b5b61055c858286016104f0565b925050602083013567ffffffffffffffff81111561057d5761057c6103dd565b5b610589858286016104f0565b9150509250929050565b5f81519050919050565b5f82825260208201905092915050565b5f819050602082019050919050565b5f81519050919050565b5f82825260208201905092915050565b5f5b838110156105f35780820151818401526020810190506105d8565b5f8484015250505050565b5f610608826105bc565b61061281856105c6565b93506106228185602086016105d6565b61062b816103e9565b840191505092915050565b5f819050919050565b61064881610636565b82525050565b5f73ffffffffffffffffffffffffffffffffffffffff82169050919050565b5f6106778261064e565b9050919050565b6106878161066d565b82525050565b5f608083015f8301518482035f8601526106a782826105fe565b915050602083015184820360208601526106c182826105fe565b91505060408301516106d6604086018261063f565b5060608301516106e9606086018261067e565b508091505092915050565b5f6106ff838361068d565b905092915050565b5f602082019050919050565b5f61071d82610593565b610727818561059d565b935083602082028501610739856105ad565b805f5b85811015610774578484038952815161075585826106f4565b945061076083610707565b925060208a0199505060018101905061073c565b50829750879550505050505092915050565b5f6020820190508181035f83015261079e8184610713565b905092915050565b5f82825260208201905092915050565b7f506c65617365207061792067726561746572207468616e2030206574686572005f82015250565b5f6107ea601f836107a6565b91506107f5826107b6565b602082019050919050565b5f6020820190508181035f830152610817816107de565b9050919050565b7f4e487b71000000000000000000000000000000000000000000000000000000005f52602260045260245ffd5b5f600282049050600182168061086257607f821691505b6020821081036108755761087461081e565b5b50919050565b5f819050815f5260205f209050919050565b5f6020601f8301049050919050565b5f82821b905092915050565b5f600883026108d77fffffffffffffffffffffffffffffffffffffffffffffffffffffffffffffffff8261089c565b6108e1868361089c565b95508019841693508086168417925050509392505050565b5f819050919050565b5f61091c61091761091284610636565b6108f9565b610636565b9050919050565b5f819050919050565b61093583610902565b61094961094182610923565b8484546108a8565b825550505050565b5f90565b61095d610951565b61096881848461092c565b505050565b5b8181101561098b576109805f82610955565b60018101905061096e565b5050565b601f8211156109d0576109a18161087b565b6109aa8461088d565b810160208510156109b9578190505b6109cd6109c58561088d565b83018261096d565b50505b505050565b5f82821c905092915050565b5f6109f05f19846008026109d5565b1980831691505092915050565b5f610a0883836109e1565b9150826002028217905092915050565b610a21826105bc565b67ffffffffffffffff811115610a3a57610a396103f9565b5b610a44825461084b565b610a4f82828561098f565b5f60209050601f831160018114610a80575f8415610a6e578287015190505b610a7885826109fd565b865550610adf565b601f198416610a8e8661087b565b5f5b82811015610ab557848901518255600182019150602085019450602081019050610a90565b86831015610ad25784890151610ace601f8916826109e1565b8355505b6001600288020188555050505b50505050505056fea2646970667358221220882bace96077a82ff53adfe3a6eecdecc4101ddc1cfc5656c49f8a2be626bc3964736f6c63430008140033",
  "linkReferences": {},
  "deployedLinkReferences": {}
}